:100727003F065B4F666D7D077F6F777C395E79711A
:0107370000C1
:02075B00C100DB
:0B074800EF1FAC0670011E4C70F62283
:10073800438901758CD8758AF0D2A9D2AFD28C22A0
:10054B00E4FDEDC39408748094805067EDB408000B
:10055B00504D900564F828287302057C0205800233
:10056B00058802058C0205940205980205A0020578
:10057B00A4C2A28002D2A2C2A3C2A48022C2A28021
:10058B0002D2A2D2A3C2A48016C2A28002D2A2C25D
:10059B00A3D2A4800AC2A28002D2A2D2A3D2A474F4
:1005AB000B2DF8E6F5807F327E00120748E4F580CC
:0305BB000D808F21
:0105BE00221A
:1003A700AD07AC06EC12028AE4FBFA7980783D12BD
:1003B70001068F168E158D148C13E4FFFE7DF07CDD
:1003C70041AB16AA15A914A81312020C5046E50A48
:1003D70075F00A8490072793F50BE50A75F00A84F0
:1003E700E5F093F50C750D40E50975F00A8493F572
:1003F7000EE50975F00A84E5F093F50F751040E5F1
:100407000875F00A8493F511E50875F00A84E5F09C
:0404170093F5122225
:10041B00E4FFFE7DC87C42AB16AA15A914A81312E3
:10042B000106E4FBFAF9783F1200151202C38E178E
:10043B008F18750B397C037DE81203447C007D0A11
:10044B0012034474272DF58274073CF583E493F56E
:10045B000CAE17AF187C007D641203447C007D0A40
:10046B0012034474272DF58274073CF583E493F54E
:10047B000DAE17AF187C007D0A1203447C007D0A79
:10048B0012034474272DF58274073CF583E49344DF
:10049B0080F50EAE17AF187C007D0A12034474274B
:1004AB002DF58274073CF583E493F50FE4F510F515
:0304BB0011F51226
:0104BE00221B
:10067F0030B00630B10320B2252000227FE87E0380
:10068F00120748D20020B003C28C2220B103D28CB3
:10069F002220B215C28CE4F50AF509F5082230B014
:0906AF000830B10530B202C200AE
:0106B800221F
:100716001207381206FF1203A712054B12067F8036
:01072600F2E0
:03000B00020601E9
:10060100C0E0C0D0758CD8758AF0308C2E0508C337
:10061100E50894647480948040217508000509E51B
:1006210009943C748094804012750900050AE50A1A
:10063100943C748094804003750A00D0D0D0E0329D
:1006E100D3EF9400EE940040147D6E7C00ED1D70FC
:0D06F100011CED4C70F7EF1F70E61E80E35A
:0106FE0022D9
:1006B900C2B77B46AF031BEF70FAD2B7FB30B71551
:1006C9007F017E001206E10BEBD3940574809480C0
:0706D90040EB7F00227F01CE
:0106E00022F7
:0C05BF001206B97F017E001206E17FCC1D
:1005CB00E4FBFAC2B70515E51570020514EF13929B
:1005DB00B7751400751506E5151515AC14700215D5
:1005EB00144C70F3D2B7EFC313FF0BBB00010AEB34
:0505FB0064084A70CE07
:0106000022D7
:100641007D087C00C2B70FBF0000D2B70FBF00000A
:100651000FBF0000A2B7E433C43333335480FBE946
:10066100C3134BF97E007F04EF1FAA0670011E4AD7
:0D06710070F6ED1D70011CED4C70C9AF015D
:01067E002259
:080003001205BF7F440205CB8A
:080753001205BF7FBE0205CBB9
:1006FF00E4FFFE1200031207531206418F13120676
:06070F0041EFFEE513FFBF
:0107150022C1
:10000E0002032FE86480F8E933E83360110460F0EE
:10001E00ED33EC337009E8FCE9FDEAFEEBFF220458
:10002E0060DED3EB9FEA9EE99DE8C2E78CF0C2F753
:10003E0095F0400CE8CCF8E9CDF9EACEFAEBCFFB1F
:10004E001202FA85D0F05804700320D5B3E804707C
:10005E00075002B2D502033992D5EC0460F7E4CC16
:10006E00C0E0C398F8603B94186008400DD0E0FBE8
:10007E00020311E4FBFAC9FC8028E830E406E4C967
:10008E00FBE4CAFCE830E305E4C9CACBFCE854073C
:10009E006010F8C3E913F9EA13FAEB13FBEC13FC47
:1000AE00D8F130F52FC3E49CFCEF9BFFEE9AFEEDEA
:1000BE0099FDD0E0FBEF4E4D4C701222DB03020394
:1000CE0036EC2CFCEF33FFEE33FEED33FDED30E777
:1000DE00EB020311EF2BFFEE3AFEED39FDD0E0FB04
:1000EE0050130BBB0003020339ED13FDEE13FEEFAD
:0800FE0013FFEC13FC020311D7
:10010600EC4D6011E8497017ED33EC3304600DE4F3
:10011600FCFFFEFD22E933E8330470F802032F12D8
:1001260002FA58046009E4CC2481500628500902DA
:100136000339284003020336C0E0EB4A7044B98015
:1001460006D0E0FB020325EF4E701CBD8008EBFFD6
:10015600EAFEE9FD80EBE98DF0A4FEE5F00201EF91
:10016600E9CDF9EAFEEBFFEF89F0A4FCE5F0CE89D4
:10017600F0A42EFFE435F0CD89F0A42DFEE435F091
:100186008067EF4E7005BD80D780C3EF8BF0A4ACBF
:10019600F0EE8BF0A42CFCE435F0F8EF8AF0A42CFA
:1001A600E5F038FCE433CB8DF0A42CFCE5F03BF80D
:1001B600EE8AF0A42CFCE5F038F8E433CF89F0A4FD
:1001C6002CFCE5F038CF3400CE89F0A42FFFE5F003
:1001D6003EFEE433C98DF0A42EFEE5F039CD8AF05B
:1001E600A42FFFE5F03EFEE43DFD33D0E0FB5007D3
:1001F6000BBB000F020339EC2CFCEF33FFEE33FE92
:06020600ED33FD020311BF
:10020C0074F8CC6480CCC86480C8F58204604FC399
:10021C00EB9FF5F0EA9E42F0E99D42F0E89C45F038
:10022C00603C501DE5825FFFE582D313CB5BCBF4C2
:10023C002B5582FB50280ABA002409B900200880EB
:10024C001DE5825BFBE582D313CF5FCFF4C3132F85
:10025C005582FF50090EBE00050DBD00010CC3EB0D
:10026C009FF5F0EA9E42F0E99D42F0E89C45F06073
:09027C0007CC4820E701B3EC2295
:1002850075F020800E75F010800575F0087D007EF4
:10029500007F003392D530D503120399EC3340101B
:1002A500EF33FFEE33FEED33FDEC33FCD5F0ED22FD
:0E02B500E5F0247EA2D513CC92E7CDCEFF2239
:1002C300EDD2E7CD33EC3392D524814006E4FFFE33
:1002D300FDFC22FCE4CFCECDCC24E0501174FF8092
:1002E300EDC3CC13CCCD13CDCE13CECF13CF04702F
:0702F300F030D5DE02039993
:1002FA00E9D2E7C933E833F892D5EDD2E7CD33EC4A
:07030A0033FC5002B2D522C2
:10031100EC30E7100FBF000C0EBE00080DBD00044D
:100321000BEB6014A2D5EB13FCED92E7FD2274FFF9
:10033100FCFDFEFF22E480F8A2D574FF13FC7D8052
:03034100E480EF66
:030000000204BF38
:0C04BF00787FE4F6D8FD75812002050668
:10034400BC000BBE0029EF8DF084FFADF022E4CC9D
:10035400F875F008EF2FFFEE33FEEC33FCEE9DEC66
:10036400984005FCEE9DFE0FD5F0E9E4CEFD22EDAC
:10037400F8F5F0EE8420D21CFEADF075F008EF2FF6
:10038400FFED33FD4007985006D5F0F222C398FDE7
:050394000FD5F0EA2284
:0E039900C3E49FFFE49EFEE49DFDE49CFC2275
:1004CB00020716E493A3F8E493A34003F68001F22A
:1004DB0008DFF48029E493A3F85407240CC8C33332
:1004EB00C4540F4420C8834004F456800146F6DF01
:1004FB00E4800B010204081020408090075BE47E2F
:10050B00019360BCA3FF543F30E509541FFEE493F5
:10051B00A360010ECF54C025E060A840B8E493A3BC
:10052B00FAE493A3F8E493A3C8C582C8CAC583CAE7
:10053B00F0A3C8C582C8CAC583CADFE9DEE780BE9F
:01075D00009B
:00000001FF
